:020000040800F2
:1000000000500020D1570008113A0008173A0008A4
:100010001D3A0008233A0008293A000800000000B1
:100020000000000000000000000000002F3A00085F
:100030003B3A000800000000473A0008533A000825
:1000400019580008195800081958000819580008CC
:1000500019580008195800081958000819580008BC
:1000600019580008195800081958000819580008AC
:1000700019580008613A0008753A00081958000834
:10008000195800081958000819580008195800088C
:10009000195800081958000819580008195800087C
:1000A000195800081958000819580008195800086C
:1000B0004133000819580008195800081958000859
:1000C000195800081958000819580008195800084C
:1000D000813A0008195800081958000819580008F2
:1000E0008D3A00081958000819580008000000004F
:1000F0000000000000000000000000000000000000
:0C01000000000000000000005FF808F1A3
:10010C0010F8012B11F8013B012A28BF9A42F7D0B5
:10011C00D01A7047034613F8012B002AFBD1181A8A
:10012C00013870470348044B834202D0034B03B1A0
:10013C0018477047CC000020CC00002000000000C5
:10014C000548064B1B1AD90F01EBA301491002D02D
:10015C00034B03B118477047CC000020CC000020A3
:10016C000000000010B5064C237843B9FFF7DAFF06
:10017C00044B13B10448AFF300800123237010BD6E
:10018C00CC000020000000008C61000808B5054B75
:10019C001BB105490548AFF30080BDE80840FFF7E7
:1001AC00CFBF00BF00000000D00000208C61000811
:1001BC0080B483B000AF0346FB71094B1B780D2B49
:1001CC0009D8074B1B785A1CD1B2054A1170194635
:1001DC00044AFB79535400BF0C37BD4680BC7047B2
:1001EC00170400201804002080B400AF094BDB6812
:1001FC00084A43F08073D360074B00225A60064BC9
:10020C001B68054A43F00103136000BFBD4680BC68
:10021C00704700BFF0ED00E0001000E080B400AFCC
:10022C00064B5A68064B1B680649A1FB03139B0C33
:10023C00B2FBF3F31846BD4680BC7047001000E0DB
:10024C007000002083DE1B4380B400AF0D4B1B7885
:10025C00002B0FD00B4B1B78013B0B4AD35C002BB4
:10026C0008D1084B1B78013B084AD35CBB2B01D14E
:10027C00012300E0002303F00103DBB21846BD4666
:10028C0080BC7047FC03002034030020980300203E
:10029C0080B400AF044B00221A70044B01221A7078
:1002AC0000BFBD4680BC7047FC0300201604002034
:1002BC0080B582B000AF184B1B78002B27D0FFF70E
:1002CC00ADFF7860154B1B687A68D31A144A9342B9
:1002DC001DD9144B1B7803F00103002B11D0124BCA
:1002EC001B889BB283F400639AB20F4B1A800F4B9E
:1002FC001B6801330D4A13600D4B1B6801330C4A0C
:10030C001360084B00221A70034B00221A7000BFB6
:10031C000837BD4680BD00BF150400201004002026
:10032C00E093040014040020F800002000010020D9
:10033C000804002080B485B000AF03460A46FB7168
:10034C001346BB71FB791BB21B021AB2BB791BB2F1
:10035C0013431BB2FB81FB8923F400639AB2104B4D
:10036C001B889BB203F400639BB21343BB810C4B01
:10037C001B889BB2BA899A420CD0094ABB8913805C
:10038C00084B1B680133074A1360074B1B6801338A
:10039C00054A136000BF1437BD4680BC704700BFD0
:1003AC00F8000020000100200804002080B582B075
:1003BC0000AF0346FB71374B1B78002B13D0364B29
:1003CC0000221A70354B00221A800E22202134484C
:1003DC0005F040FA324B00229A73314B0022DA734B
:1003EC002C4B00221A70FB79002B4BD0002B44DBDA
:1003FC008D2B42DC812B40DB813B0C2B3DD801A2A9
:10040C0052F823F0950400088704000887040008BC
:10041C0045040008870400084D0400088704000800
:10042C008704000887040008870400088704000874
:10043C007F040008550400082E20FFF7B9FE24E0C5
:10044C002C20FFF7B5FE20E0134B1B78002B0CD0B3
:10045C00114B1B78013B012202FA03F39AB20F4BAA
:10046C001B8813439AB20D4B1A803A20FFF7A0FE5B
:10047C000BE03A20FFF79CFE07E0FB791846FFF7EC
:10048C0097FE02E000BF00E000BF00BF0837BD468A
:10049C0080BD00BF000000201704002028040020AD
:1004AC001804002080B500AF414B00221A60414B6C
:1004BC0000221A60404B00221A60404B00221A6046
:1004CC00FFF7ACFE03463E4A13603E4B00221A6017
:1004DC003D4B00221A60FFF7A1FE03463B4A136016
:1004EC00FFF782FE3A4B00221A803A4B00221A8008
:1004FC000E222021384805F0ADF9374B00229A73B3
:10050C00354B0022DA730E222021344805F0A2F973
:10051C00324B00229A73314B0022DA73304B00229B
:10052C001A80304B00221A802F4B00221A702F4B4E
:10053C0000221A602E4B00221A7000212D4B0A4605
:10054C001A702D4B0A461A702C4B00221A702C4B29
:10055C0000221A702B4B00221A702B4B00221A709F
:10056C002A4B01221A702A4B00221A60294B0022B6
:10057C001A70294B00221A70284B00221A60284B43
:10058C0000221A60274B00221A60274B00221A60A7
:10059C00FFF744FE0346254A13600B4B00221A60FA
:1005AC00064B00221A601D4B00221A6000BF80BD52
:1005BC002401002020010020080100200C01002053
:1005CC001001002014010020180100201C01002043
:1005DC000401002028040020E8000020180400205A
:1005EC00F8000020FA000020FC0000200001002090
:1005FC00280100202A010020290100202C030020C2
:10060C002D030020FC030020160400200000002015
:10061C001004002014040020150400200004002005
:10062C0004040020080400200C04002030030020E7
:10063C0080B584B000AFFFF7F1FDF860444B1B7838
:10064C00DBB2002B0AD0434B1B68FA68D31A40F27A
:10065C00DC52934202D93E4B00221A703D4AFB6891
:10066C0013603D4B9B68BB60BB689B0BDBB203F01C
:10067C000303FB71394B1B78DBB25BB25B005AB2E4
:10068C00FB795B08DBB25BB213435BB2DAB2334B80
:10069C001A70334B1B78DBB25B00DAB2FB7903F0D8
:1006AC000103DBB21343DAB22D4B1A70284B1B78C3
:1006BC00DBB20133DAB2264B1A70254B1B78DBB256
:1006CC00082B41D1274B1B78DBB20133BB71264B76
:1006DC001B78DBB2BA799A4205D1244B1B680133E3
:1006EC00224A13602DE01F4B1B78DBB21A461C4BC1
:1006FC001B78D9B21E4B03F812101A4B1B78DBB2C5
:10070C001846164B1B78D9B2194A430013440A46B3
:10071C005A70144ABB791370124B1B78DBB21A4611
:10072C00114B1B78DBB2D31ADBB2124A1360114B9C
:10073C001A68114B1B689A4203D90E4B1B680E4A60
:10074C001360034B00221A7000BF1037BD4680BDEA
:10075C002801002030030020000C01402A01002059
:10076C00290100202C0300202D0300200004002070
:10077C002C010020240100202001002090B587B01E
:10078C0000AFFFF795FD8BE1944B1B78DBB21A465B
:10079C00934B13F81230FB75904B1B78DBB2904ADD
:1007AC005B0013445B78BB758C4B1B78DBB201335D
:1007BC00DAB28A4B1A70FFF731FD3861894B1B682E
:1007CC003A69D31A884A1360874B1A68874B1B689F
:1007DC009A4203D9844B1B68844A1360814A3B6953
:1007EC001360834B1B781946824AFB7D5354804B14
:1007FC001B781946804ABB7D53547D4B1B780133C3
:10080C00DAB27B4B1A707D4B1B78052B00F23681CC
:10081C0001A252F823F000BF3D0800084F08000861
:10082C00B9080008350900085F09000875090008B7
:10083C00FFF70AFD0346002B00F02381FFF728FD8C
:10084C001FE16B4B1B78012B0BD16A4B1B78002BD8
:10085C0007D1694B1B78772B03D1684B05221A7093
:10086C0018E1634B1B78022B40F00D81614B1B7818
:10087C00002B09D15F4B5B7803F07F037F2B03D1F7
:10088C005E4B02221A7005E15A4B1B7803F07F0372
:10089C007F2B07D1574B5B78002B03D1574B03228F
:1008AC001A70F7E0554B04221A70F3E0FFF7CCFCFA
:1008BC000346002B2FD0524A524B14460FCB84E8E0
:1008CC000F00514B1A88514B1A80514B1B68013346
:1008DC004F4A13604F4B1B6801334E4A1360FFF7AE
:1008EC009DFC78604C4B1B687A68D31A4B4A13609A
:1008FC004A4B1A684A4B1B689A4203D9474B1B68F0
:10090C00474A1360444A7B681360464B01221A70B5
:10091C00FFF7BEFCBEE0364B1B78013B354AD35C7F
:10092C001846FFF743FDB5E0FFF78EFC0346002B9E
:10093C0000F0AB802E4B1B78032B07D92D4BDB78AB
:10094C002C4A927811461846FFF7F4FCFFF7A0FCEE
:10095C009BE0FFF779FC0346002B00F0988000F039
:10096C00BDF8FFF795FC92E0214B1B78013B214A27
:10097C00D35C662B40F08D801D4B1B78022B7AD9F3
:10098C001D4B1B781A041C4B5B781B0213431A4A31
:10099C0092781343FB60FB68234A93424CD1FFF7D8
:1009AC003DFCB860214B1B7883F00103DBB2002BBC
:1009BC0009D01E4B01221A701D4ABB6813601D4BD7
:1009CC0001221A7057E01B4B1B780133DAB2194B1A
:1009DC001A70174ABB6813604DE000BF2D0300204E
:1009EC002C0100201C010020140100201801002003
:1009FC00FC03002034030020980300201604002080
:100A0C00E800002018040020280400200401002025
:100A1C000001002004040020100100200801002027
:100A2C000C01002000000020CF9D77001504002051
:100A3C001004002014040020204B00221A70204BBC
:100A4C0000221A701F4B1B889BB203F40063002B0F
:100A5C0011D01C4B1B889BB223F400639AB2194B28
:100A6C001A80194B1B680133174A1360174B1B680C
:100A7C000133164A1360FFF70BFC0AE0FFF708FC82
:100A8C0008E000BF06E000BF04E000BF02E000BFCA
:100A9C0000E000BF0E4B1B78632B01D9FFF7F8FB6E
:100AAC000C4B1B78DAB20C4B1B78DBB29A427FF4FE
:100ABC006BAE00BF00BF1C37BD4690BD15040020B7
:100ACC0014040020F800002000010020080400207D
:100ADC00FC0300202D0300202C03002080B483B0E5
:100AEC0000AF584B1B78012B40F2A480564B1B785F
:100AFC001BB21B021AB2544B5B781BB213431BB2D2
:100B0C00FB80FB8847F64912934279D047F649128D
:100B1C00934200F3918047F2491293424FD047F22F
:100B2C004912934200F3888046F6492293426CD0D6
:100B3C0046F6492293427FDC46F24922934242D048
:100B4C0046F24922934277DC45F2493293423ED039
:100B5C0045F2493293426FDC44F2494293423AD017
:100B6C0044F24942934267DC43F24952934236D0F5
:100B7C0043F2495293425FDC42F64932934249D0E8
:100B8C0042F64932934257DC42F2496293422AD0F0
:100B9C0042F2496293424FDC41F24972934226D0B1
:100BAC0041F24972934247DC492B04D040F649028A
:100BBC00934220D040E0254B01221A802FE0234B9A
:100BCC0002221A802BE0214B04221A8027E01F4BB3
:100BDC0008221A8023E01D4B10221A801FE01B4BA9
:100BEC0020221A801BE0194B40221A8017E0174B69
:100BFC0080221A8013E0154B4FF480721A800EE09D
:100C0C00124B4FF400721A8009E0104B4FF48062C3
:100C1C001A8004E00D4B4FF400621A8000BF0C4B9D
:100C2C001B6801330A4A13600A4B1B680133094ADB
:100C3C00136002E000BF00E000BF0C37BD4680BC73
:100C4C00704700BFFC030020340300200401002087
:100C5C00000100200404002080B582B000AFBA204F
:100C6C0001F068FB01F0B6FB0346FB7106E0BA200D
:100C7C0001F060FB01F0AEFB0346FB71FB7903F066
:100C8C004003002BF3D100BF00BF0837BD4680BD29
:100C9C0080B590B008AF1B4B1B681B4A12681146FD
:100CAC00184601F0B0FD002307933223069304236A
:100CBC00059301230493032303930323029301233A
:100CCC00019300230093002300220221002001F055
:100CDC004DFC3B460D4A1A603B461846FFF71AFA84
:100CEC0002463B4613440A4A12680A49184604F065
:100CFC008FFD3B46184601F059FD00BF2037BD461D
:100D0C0080BD00BF0C0000202C0400204C533D0083
:100D1C0058040020A461000880B5AEB008AF6E4B3B
:100D2C001B88A7F8863002F047FFC7F880004FF009
:100D3C00FF33C7F890304FF0FF33C7F88C300923DE
:100D4C00C7F888300023C7F8943026E0634AD7F8F8
:100D5C00943013441B7887F87F30604AD7F894306E
:100D6C0013441B78D9B207F14402D7F894301344DA
:100D7C000A461A7097F87F30002B13D097F87F3003
:100D8C001F2B40F20E8597F87F307E2B00F20985E1
:100D9C00D7F894300133C7F89430D7F894300E2B31
:100DAC00D4DD00E000BF002387F853304C4B1B68A8
:100DBC00D7F88020D31AF92B0AD9494AD7F88030B2
:100DCC001360484B1B7883F00103DAB2454B1A7061
:100DDC00444B1B78002B1DD10023C7F8943015E031
:100DEC00B7F88620D7F8943022FA03F303F0010306
:100DFC00002B06D007F14402D7F89430134420227C
:100E0C001A70D7F894300133C7F89430D7F894306F
:100E1C000D2BE5DD0023C7F8943011E007F14402F7
:100E2C00D7F8943013441B782C2B04D1D7F894307A
:100E3C00C7F88C300CE0D7F894300133C7F89430F5
:100E4C0007F14402D7F8943013441B78002BE5D1FA
:100E5C00D7F88C30002B02DB0A23C7F8883007F157
:100E6C004403D7F88810184600F0A0FC07F144039F
:100E7C00D7F88810184600F00FFD07F14403184608
:100E8C0000F082FD184B1B68184A12681146184670
:100E9C0001F0B9FC00230793322306930423059336
:100EAC00012304930323039303230293012301934C
:100EBC0000230093002300220221002001F056FBA6
:100ECC004FF0FF33C7F890304FF0FF33C7F88C303A
:100EDC000023C7F8943028E004010020E80000202B
:100EEC0030040020140000200C0000202C040020F2
:100EFC0007F14402D7F8943013441B782E2B03D1FE
:100F0C00D7F89430C7F8903007F14402D7F89430F2
:100F1C0013441B782C2B03D1D7F89430C7F88C30A2
:100F2C00D7F894300133C7F8943007F14402D7F85E
:100F3C00943013441B78002BDAD14D4B1B68D7F837
:100F4C0090209A4200F08C804623BB67D7F8902003
:100F5C0013461B0113449B0002337B67BB6F03F1E9
:100F6C0064020023029300230193002300937B6F00
:100F7C00796FB86F02F0D5F87B6F591CBB6F03F11A
:100F8C0064027B6F0133002002900020019000204E
:100F9C000090B86F02F0C5F87B6F991CBB6F03F122
:100FAC0064027B6F0233002002900020019000202D
:100FBC000090B86F02F0B5F87B6FD91CBB6F03F1D2
:100FCC0064027B6F0333002002900020019000200C
:100FDC000090B86F02F0A5F87B6F191DBB6F03F181
:100FEC0064027B6F043300200290002001900020EB
:100FFC000090B86F02F095F87B6F591DBB6F03F131
:10100C0064027B6F053300200290002001900020C9
:10101C000090B86F02F085F87B6F991DBB6F03F1E0
:10102C0064027B6F063300200290002001900020A8
:10103C000090B86F02F075F87B6FD91DBB6F03F190
:10104C0064027B6F07330020029000200190002087
:10105C000090B86F02F065F8054AD7F8903013602D
:10106C00044B1B68D7F88C209A4200F0D98003E01F
:10107C00040000200800002046233B67D7F88C3082
:10108C005A1E13461B0113449B000A33FB663B6F2D
:10109C0003F16402002302930023019300230093C5
:1010AC00FB6EF96E386F02F03CF8FB6E591C3B6F0F
:1010BC0003F16402FB6E01330020029000200190CA
:1010CC0000200090386F02F02CF8FB6E991C3B6FDF
:1010DC0003F16402FB6E02330020029000200190A9
:1010EC0000200090386F02F01CF8FB6ED91C3B6F8F
:1010FC0003F16402FB6E0333002002900020019088
:10110C0000200090386F02F00CF8FB6E191D3B6F3D
:10111C0003F16402FB6E0433002002900020019066
:10112C0000200090386F01F0FCFFFB6E591D3B6FE7
:10113C0003F16402FB6E0533002002900020019045
:10114C0000200090386F01F0ECFFFB6E991D3B6F97
:10115C0003F16402FB6E0633002002900020019024
:10116C0000200090386F01F0DCFFFB6ED91D3B6F47
:10117C0003F16402FB6E0733002002900020019003
:10118C0000200090386F01F0CCFFFB6E03F10801DA
:10119C003B6F03F16402FB6E0833002002900020C9
:1011AC00019000200090386F01F0BBFFFB6E03F143
:1011BC0009013B6F03F16402FB6E093300200290BE
:1011CC000020019000200090386F01F0AAFFFB6E08
:1011DC0003F10A013B6F03F16402FB6E0A3300203A
:1011EC0002900020019000200090386F01F099FFD0
:1011FC00FB6E03F10B013B6F03F16402FB6E0B33CF
:10120C00002002900020019000200090386F01F027
:10121C0088FF024AD7F88C30136001E008000020E8
:10122C00D7F89030002BC0F2D281D7F88C20D7F8A9
:10123C0090309A4240F3CB81D7F8902007F14401CB
:10124C0007F13403184604F041FB07F13402D7F8D8
:10125C009030134400221A70D7F89030013307F104
:10126C004402D118D7F88C20D7F89030D31A013B10
:10127C001A4607F12403184604F028FBD7F88C20F3
:10128C00D7F89030D31A013B98333B44002203F833
:10129C00742CD7F88C30013307F144021A4407F14F
:1012AC0014031146184604F009FBFFF7D5FC07F1AF
:1012BC003403184601F07AFA8F23BB66D7F89020D6
:1012CC0013461B0113449B007B66BB6E03F10A02A1
:1012DC00FF230293FF230193FF2300937B6E796E10
:1012EC00B86E01F01EFF7B6E591CBB6E03F10A0237
:1012FC007B6E0133FF200290FF200190FF200090B5
:10130C00B86E01F00EFF7B6E991CBB6E03F10A02E6
:10131C007B6E0233FF200290FF200190FF20009093
:10132C00B86E01F0FEFE7B6ED91CBB6E03F10A0297
:10133C007B6E0333FF200290FF200190FF20009072
:10134C00B86E01F0EEFE7B6E191DBB6E03F10A0246
:10135C007B6E0433FF200290FF200190FF20009051
:10136C00B86E01F0DEFE7B6E591DBB6E03F10A02F6
:10137C007B6E0533FF200290FF200190FF20009030
:10138C00B86E01F0CEFE7B6E991DBB6E03F10A02A6
:10139C007B6E0633FF200290FF200190FF2000900F
:1013AC00B86E01F0BEFE7B6ED91DBB6E03F10A0256
:1013BC007B6E0733FF200290FF200190FF200090EE
:1013CC00B86E01F0AEFE7B6E03F10801BB6E03F14B
:1013DC000A027B6E0833FF200290FF200190FF2051
:1013EC000090B86E01F09DFED7F8902013461B01BB
:1013FC0013449B000A33079332230693042305936B
:10140C0001230493032303930323029301230193E6
:10141C0000230093002300220221002001F0A6F8F3
:10142C00FFF71AFC07F12403184601F0BFF98F23CC
:10143C003B66D7F88C305A1E13461B0113449B0095
:10144C000A33FB653B6E03F10F02FF230293FF236C
:10145C000193FF230093FB6DF96D386E01F061FE73
:10146C00FB6D591C3B6E03F10F02FB6D0133FF202A
:10147C000290FF200190FF200090386E01F051FE89
:10148C00FB6D991C3B6E03F10F02FB6D0233FF20C9
:10149C000290FF200190FF200090386E01F041FE79
:1014AC00FB6DD91C3B6E03F10F02FB6D0333FF2068
:1014BC000290FF200190FF200090386E01F031FE69
:1014CC00FB6D191D3B6E03F10A02FB6D0433FF200B
:1014DC000290FF200190FF200090386E01F021FE59
:1014EC00FB6D591D3B6E03F10A02FB6D0533FF20AA
:1014FC000290FF200190FF200090386E01F011FE49
:10150C00FB6D991D3B6E03F10A02FB6D0633FF2048
:10151C000290FF200190FF200090386E01F001FE38
:10152C00FB6DD91D3B6E03F10A02FB6D0733FF20E7
:10153C000290FF200190FF200090386E01F0F1FD29
:10154C00FB6D03F108013B6E03F10A02FB6D0833DE
:10155C00FF200290FF200190FF200090386E01F0D8
:10156C00E0FDFB6D03F109013B6E03F10A02FB6D1B
:10157C000933FF200290FF200190FF200090386E6D
:10158C0001F0CFFDD7F88C305A1E13461B011344C3
:10159C009B001433079332230693042305930123F2
:1015AC000493032303930323029301230193002346
:1015BC000093002300220221002000F0D7FFFFF748
:1015CC004BFB07F11403184601F0F0F8EAE0D7F8EA
:1015DC009030002BC0F2DD80D7F8902007F1440149
:1015EC0007F13403184604F071F907F13402D7F807
:1015FC009030134400221A70D7F89030013307F161
:10160C0044021A443B1D1146184604F057F9FFF7E3
:10161C0023FB07F13403184601F0C8F88F23BB6590
:10162C00D7F8902013461B0113449B007B65BB6DC0
:10163C0003F10A02FF230293FF230193FF2300937C
:10164C007B6D796DB86D01F06CFD7B6D591CBB6DBC
:10165C0003F10A027B6D0133FF200290FF20019001
:10166C00FF200090B86D01F05CFD7B6D991CBB6D8B
:10167C0003F10A027B6D0233FF200290FF200190E0
:10168C00FF200090B86D01F04CFD7B6DD91CBB6D3B
:10169C0003F10A027B6D0333FF200290FF200190BF
:1016AC00FF200090B86D01F03CFD7B6D191DBB6DEA
:1016BC0003F10A027B6D0433FF200290FF2001909E
:1016CC00FF200090B86D01F02CFD7B6D591DBB6D9A
:1016DC0003F10A027B6D0533FF200290FF2001907D
:1016EC00FF200090B86D01F01CFD7B6D991DBB6D4A
:1016FC0003F10A027B6D0633FF200290FF2001905C
:10170C00FF200090B86D01F00CFD7B6DD91DBB6DF9
:10171C0003F10A027B6D0733FF200290FF2001903A
:10172C00FF200090B86D01F0FCFC7B6D03F108010B
:10173C00BB6D03F10A027B6D0833FF200290FF2082
:10174C000190FF200090B86D01F0EBFCD7F89020D1
:10175C0013461B0113449B000A3307933223069351
:10176C00042305930123049303230393032302937C
:10177C000123019300230093002300220221002067
:10178C0000F0F4FEFFF768FA3B1D184601F00EF866
:10179C0008E0FFF761FA07F14403184601F006F878
:1017AC0000E000BF9837BD4680BD00BF80B584B057
:1017BC0000AF786039600023FB605AE0344AFB6864
:1017CC0052F82330BB603B687A6813441A78BB68C4
:1017DC001B789A424AD13B6801337A6813441A78D1
:1017EC00BB6801331B789A4240D13B6802337A685C
:1017FC0013441A78BB6802331B789A4236D13B6883
:10180C0003337A6813441A78BB6803331B789A4203
:10181C002CD13B6803337A681A443B6804337968EB
:10182C000B4412781A703B6802337A681A443B688E
:10183C00033379680B4412781A703B6801337A6869
:10184C001A443B68023379680B4412781A703B686F
:10185C007A681A443B68013379680B4412781A7021
:10186C003B687A68134420221A700DE0FB68013340
:10187C00FB60074AFB6852F8233006491846FEF70E
:10188C003FFC0346002B99D11037BD4680BD00BFED
:10189C0018000020A861000880B584B000AF786003
:1018AC0039600023FB605CE0354AFB6852F823305A
:1018BC00BB603B687A6813441A78BB681B789A4201
:1018CC004CD13B6801337A6813441A78BB680133F6
:1018DC001B789A4242D13B6802337A6813441A78D7
:1018EC00BB6802331B789A4238D13B6803337A6861
:1018FC0013441A78BB6803331B789A422ED13B6889
:10190C0005337A68134400221A703B6802337A68F4
:10191C001A443B68043379680B4412781A703B689C
:10192C0001337A681A443B68033379680B441278A4
:10193C001A703B687A681A443B68023379680B4426
:10194C0012781A703B6801337A68134420221A709B
:10195C003B687A68134420221A700DE0FB6801334F
:10196C00FB60074AFB6852F8233006491846FEF71D
:10197C00C7FB0346002B97D11037BD4680BD00BF77
:10198C0060000020B061000880B485B000AF7860C2
:10199C000023FB6081E00023BB6078E0FB687A6881
:1019AC00134419784348BA6813469B0013445B00F0
:1019BC0003441B78994267D1FB6801337A6813445E
:1019CC0019783C48BA6813469B0013445B000344E7
:1019DC0001331B78994257D1FB6802337A68134460
:1019EC0019783448BA6813469B0013445B000344CF
:1019FC0002331B78994247D1FB6803337A6813444E
:101A0C0019782C48BA6813469B0013445B000344B6
:101A1C0003331B78994237D1FB687A68D118254873
:101A2C00BA6813469B0013445B00034405331B78D0
:101A3C000B70FB6801337A68D1181E48BA681346DC
:101A4C009B0013445B00034406331B780B70FB684C
:101A5C0002337A68D1181748BA6813469B001344AE
:101A6C005B00034407331B780B70FB6803337A6805
:101A7C00D1181048BA6813469B0013445B0003440A
:101A8C0008331B780B7010E0BB680133BB60BB687C
:101A9C000D2B83DDFB680133FB60FB6803337A6835
:101AAC0013441B78002B7FF476AF1437BD4680BCF3
:101ABC00704700BF68630008B0B5AAB008AF4A4BC6
:101ACC0007F13C041D460FCD0FC40FCD0FC40FCD35
:101ADC000FC495E8070084E80700444B3C461D46BC
:101AEC000FCD0FC40FCD0FC40FCD0FC495E8070059
:101AFC0084E8070001213E4802F07EFC0346012BDE
:101B0C000CBF01230023DBB287F87B300023C7F81E
:101B1C00843060E00122D7F8843002FA03F39AB2E1
:101B2C00344B1B889BB213409BB2002B14BF012378
:101B3C000023DBB287F88330D7F884300B2B06D127
:101B4C0097F87B30002B02D1002387F8833097F86D
:101B5C008330002B06D0284B1B680021184600F060
:101B6C0052FE03E00021002000F04DFEB423FB6781
:101B7C00D7F884300B2B01DD0223FB67D7F88430B8
:101B8C009B0088333B4453F8883C0793FB6F0693C8
:101B9C00002305930523049302230393012302934B
:101BAC000123019300230093002300220021002035
:101BBC0000F0DCFCFFF750F8D7F884309B0088333A
:101BCC003B4453F84C3C184600F0F0FDD7F88430F9
:101BDC000133C7F88430D7F884300E2B9ADD00BF60
:101BEC0000BF8837BD46B0BD206200085C620008AB
:101BFC00000C0140F80000201000002080B584B0DB
:101C0C0000AF03460A46FB8013467B717B79013B90
:101C1C00FB6025E0FA88FB6842FA03F303F001034A
:101C2C00002B05D001222021114802F0FCFB04E01E
:101C3C00002220210E4802F0F6FB012210210C4854
:101C4C0002F0F1FB052000F05DF80022102108489D
:101C5C0002F0E9FB052000F055F8FB68013BFB6046
:101C6C00FB68002BD6DA00BF00BF1037BD4680BD25
:101C7C00000C014080B582B000AF0346FB7100221E
:101C8C0008210C4802F0CFFB0A2000F03BF8FB794E
:101C9C009BB209211846FFF7B1FF01220821054824
:101CAC0002F0C1FB0A2000F02DF800BF0837BD463A
:101CBC0080BD00BF000C014080B582B000AF034670
:101CCC00FB71002208210E4802F0ADFB0A2000F047
:101CDC0019F8FB791BB243F480731BB29BB2092138
:101CEC001846FFF78BFF01220821054802F09BFBE9
:101CFC000A2000F007F800BF0837BD4680BD00BFC2
:101D0C00000C014080B586B000AF0346FB80154B3C
:101D1C009B687B6102F09AFF0346134AA2FB0323E4
:101D2C009B0CFA8802FB03F33B610E4B5B6801339F
:101D3C00FB6008E00B4B9B68FA689A4203D27A6905
:101D4C00FB68D31A7B61074B9B687A69D31A23F023
:101D5C007F433A699A42EDD800BF00BF1837BD46A1
:101D6C0080BD00BF10E000E083DE1B4380B500AFF8
:101D7C00FF20FFF77FFF7720FFF79EFF0120FFF783
:101D8C009BFF0020FFF798FF0020FFF795FF132023
:101D9C00FFF792FFEF20FFF76DFF0820FFF78CFF96
:101DAC00FF20FFF767FF7720FFF786FF0120FFF783
:101DBC0083FF0020FFF780FF0020FFF77DFF10203E
:101DCC00FFF77AFFC020FFF755FF7720FFF774FF6E
:101DDC000020FFF771FFC120FFF74CFF1120FFF728
:101DEC006BFF0C20FFF768FFC220FFF743FF0720B3
:101DFC00FFF762FF0220FFF75FFFC320FFF73AFFF8
:101E0C008020FFF759FF1020FFF756FF1020FFF737
:101E1C0053FFCC20FFF72EFF3020FFF74DFFB020F3
:101E2C00FFF728FF0620FFF747FFCF20FFF744FFFF
:101E3C001420FFF741FF0C20FFF73EFF0F20FFF7A8
:101E4C003BFF0320FFF738FF0020FFF735FF0A2088
:101E5C00FFF732FF0720FFF72FFF1B20FFF72CFFA8
:101E6C000320FFF729FF1220FFF726FF1020FFF7B2
:101E7C0023FF2520FFF720FF3620FFF71DFF1E2034
:101E8C00FFF71AFFB120FFF7F5FE0C20FFF714FF48
:101E9C00D420FFF711FF1820FFF70EFF0C20FFF7DF
:101EAC000BFF0E20FFF708FF0620FFF705FF0320AE
:101EBC00FFF702FF0620FFF7FFFE0820FFF7FCFEEE
:101ECC002320FFF7F9FE0620FFF7F6FE1220FFF79E
:101EDC00F3FE1020FFF7F0FE3020FFF7EDFE2F2071
:101EEC00FFF7EAFE1F20FFF7E7FEFF20FFF7C2FE19
:101EFC007720FFF7E1FE0120FFF7DEFE0020FFF761
:101F0C00DBFE0020FFF7D8FE1120FFF7D5FEB02036
:101F1C00FFF7B0FE7320FFF7CFFEB120FFF7AAFE4C
:101F2C007C20FFF7C9FEB220FFF7A4FE8320FFF749
:101F3C00C3FEB320FFF79EFE8020FFF7BDFEB52049
:101F4C00FFF798FE4920FFF7B7FEB720FFF792FE88
:101F5C008720FFF7B1FEB820FFF78CFE3320FFF788
:101F6C00ABFEB920FFF786FE1020FFF7A5FE1F2061
:101F7C00FFF7A2FEBB20FFF77DFE0320FFF79CFEC0
:101F8C00C120FFF777FE0820FFF796FEC220FFF76F
:101F9C0071FE0820FFF790FED020FFF76BFE882023
:101FAC00FFF78AFEE020FFF765FE0020FFF784FEB6
:101FBC000020FFF781FE0220FFF77EFE0020FFF7D6
:101FCC007BFE0020FFF778FE0C20FFF775FEE1206A
:101FDC00FFF750FE0520FFF76FFE9620FFF76CFE13
:101FEC000720FFF769FE9620FFF766FE0620FFF735
:101FFC0063FE9620FFF760FE0820FFF75DFE96203B
:10200C00FFF75AFE0020FFF757FE4420FFF754FE5F
:10201C004420FFF751FEE220FFF72CFE0020FFF7D3
:10202C004BFE0020FFF748FE0320FFF745FE032080
:10203C00FFF742FE0020FFF73FFE0020FFF73CFEBB
:10204C000220FFF739FE0020FFF736FE0020FFF7D5
:10205C0033FE0020FFF730FE0220FFF72DFE00209C
:10206C00FFF72AFEE320FFF705FE0020FFF724FE12
:10207C000020FFF721FE3320FFF71EFE3320FFF771
:10208C001BFEE420FFF7F6FD4420FFF715FE44206D
:10209C00FFF712FEE520FFF7EDFD0D20FFF70CFE1C
:1020AC00D420FFF709FE2820FFF706FE8C20FFF74F
:1020BC0003FE0F20FFF700FED620FFF7FDFD2820C2
:1020CC00FFF7FAFD8C20FFF7F7FD0920FFF7F4FD71
:1020DC00D020FFF7F1FD2820FFF7EEFD8C20FFF755
:1020EC00EBFD0B20FFF7E8FDD220FFF7E5FD2820E4
:1020FC00FFF7E2FD8C20FFF7DFFDE620FFF7BAFDCE
:10210C000020FFF7D9FD0020FFF7D6FD3320FFF7A5
:10211C00D3FD3320FFF7D0FDE720FFF7ABFD4420C4
:10212C00FFF7CAFD4420FFF7C7FDE820FFF7A2FD2B
:10213C000E20FFF7C1FDD520FFF7BEFD2820FFF7CD
:10214C00BBFD8C20FFF7B8FD1020FFF7B5FDD720A5
:10215C00FFF7B2FD2820FFF7AFFD8C20FFF7ACFD99
:10216C000A20FFF7A9FDD120FFF7A6FD2820FFF7D5
:10217C00A3FD8C20FFF7A0FD0C20FFF79DFDD320C5
:10218C00FFF79AFD2820FFF797FD8C20FFF794FDB1
:10219C00EB20FFF76FFD0020FFF78EFD0120FFF70E
:1021AC008BFDE420FFF788FDE420FFF785FD44203C
:1021BC00FFF782FD0020FFF77FFDED20FFF75AFDB2
:1021CC00F320FFF779FDC120FFF776FDBA20FFF76A
:1021DC0073FD0F20FFF770FD6620FFF76DFD772074
:1021EC00FFF76AFD4420FFF767FD5520FFF764FDFC
:1021FC005520FFF761FD4420FFF75EFD7720FFF7C8
:10220C005BFD6620FFF758FDF020FFF755FDAB2076
:10221C00FFF752FD1C20FFF74FFD3F20FFF74CFD51
:10222C00EF20FFF727FD1020FFF746FD0D20FFF7ED
:10223C0043FD0420FFF740FD0820FFF73DFD3F2044
:10224C00FFF73AFD1F20FFF737FDFF20FFF712FDC8
:10225C007720FFF731FD0120FFF72EFD0020FFF75F
:10226C002BFD0020FFF728FD1320FFF725FDE820AC
:10227C00FFF700FD0020FFF71FFD0E20FFF71CFDF0
:10228C00E820FFF7F7FC0020FFF716FD0C20FFF706
:10229C0013FD0A2001F09AFCE820FFF7EBFC40202C
:1022AC00FFF70AFD0020FFF707FDFF20FFF7E2FC18
:1022BC007720FFF701FD0120FFF7FEFC0020FFF760
:1022CC00FBFC0020FFF7F8FC0020FFF7F5FC3620A4
:1022DC00FFF7D0FC0020FFF7EFFC3A20FFF7CAFC19
:1022EC006620FFF7E9FC1120FFF7C4FC782001F011
:1022FC006DFC2920FFF7BEFC142001F067FC00BF29
:10230C0080BD000080B500AF00224FF4806108480A
:10231C0002F089F8142001F059FC01224FF480617D
:10232C00034802F080F8142001F050FC00BF80BD7F
:10233C00000C014080B584B000AF0346FB71002354
:10234C00FB73002210210D4802F06DF807F10F010C
:10235C004FF0FF3301220A4802F04CFDF91D4FF0FB
:10236C00FF330122064802F045FD012210210348EB
:10237C0002F059F800BF1037BD4680BD000801407F
:10238C007404002080B584B000AF0346FB71802339
:10239C00FB73002210210D4802F045F807F10F01E4
:1023AC004FF0FF3301220A4802F024FDF91D4FF0D3
:1023BC00FF330122064802F01DFD012210210348C3
:1023CC0002F031F800BF1037BD4680BD0008014057
:1023DC007404002080B582B000AFC023FB710023D1
:1023EC00BB71002210210D4802F01DF8F91D4FF0B1
:1023FC00FF3301220A4802F0FDFCB91D4FF0FF33F8
:10240C000122074802F032FE01221021034802F09B
:10241C000AF8BB7918460837BD4680BD0008014054
:10242C007404002080B582B000AF03460A46FB71ED
:10243C001346BB71FB791846FFF77CFFBB79184636
:10244C00FFF7A0FF00BF0837BD4680BD80B500AFC9
:10245C0000F078FD0A2001F0B9FB00F05DFA0A20CB
:10246C0001F0B4FB00F077FB052001F0AFFB00F0AE
:10247C00D5FB0A2001F0AAFB8420FFF75BFF0020AC
:10248C00FFF780FF052001F0A1FB00F0EFFC052019
:10249C0001F09CFB4FF47071F02000F003FC052060
:1024AC0001F094FB882000F044FC052001F08EFB29
:1024BC00052000F061FC052001F088FB052000F0F0
:1024CC0077FC052001F082FB0A2000F08DFC052032
:1024DC0001F07CFB052000F0A1FC052001F076FB4F
:1024EC00052000F0AFFC052001F070FB00F09BFD17
:1024FC00052001F06BFB00F0C1FA052001F066FB32
:10250C0000F04EFD052001F061FB00F059FD0520A7
:10251C0001F05CFB00F0CCF9052001F057FB00F05A
:10252C0072FD052001F052FB00F0BFFD052001F00B
:10253C004DFB00F0E6FD052001F048FB00F087FDA7
:10254C00052001F043FB00F092FD052001F03EFB5D
:10255C0000F00AFD052001F039FB00F091F900F0C4
:10256C00BBF8052001F032FB00BF80BD90B585B0F3
:10257C0000AF0446084611461A462346FB71034633
:10258C00BB710B467B7113463B710023FB7300231D
:10259C00BB7397F907309B015AB297F90F3013436D
:1025AC005BB2FB7397F906301B015BB203F030038F
:1025BC005AB297F90F3013435BB2FB7397F905309E
:1025CC0003F003035AB297F90F3013435BB2FB735A
:1025DC00CC20FFF7AFFEFB7B1846FFF7D3FE97F935
:1025EC000430DB015AB297F90E3013435BB2BB7364
:1025FC0097F920309B015AB297F90E3013435BB216
:10260C00BB7397F924301B015AB297F90E30134360
:10261C005BB2BB7397F928309B005BB203F00C03E1
:10262C005AB297F90E3013435BB2BB7397F92C3047
:10263C0003F003035AB297F90E3013435BB2BB732A
:10264C00CD20FFF777FEBB7B1846FFF79BFED02013
:10265C00FFF770FE97F8303003F01F03DBB218461B
:10266C00FFF790FED120FFF765FE97F8343003F0AA
:10267C003F03DBB21846FFF785FE6320FFF75AFED7
:10268C003B8FDBB21846FFF77DFE6420FFF752FE4E
:10269C003B8F1B0A9BB2DBB203F01F03DBB2184665
:1026AC00FFF770FE6520FFF745FEBB8FDBB21846C7
:1026BC00FFF768FE6620FFF73DFEBB8F1B0A9BB23F
:1026CC00DBB203F01F03DBB21846FFF75BFE00BF63
:1026DC001437BD4690BD000080B58AB008AF082302
:1026EC007B8010233B800021002000F08CF800231D
:1026FC0007930023069300230593002304930123DF
:10270C0003930123029301230193002300930023DD
:10271C00002200210020FFF729FF0023FB803AE074
:10272C000023BB8030E06320FFF704FEBB88DBB2E4
:10273C001846FFF727FE6420FFF7FCFDBB881B0A39
:10274C009BB2DBB203F01F03DBB21846FFF71AFE95
:10275C006520FFF7EFFDFB88DBB21846FFF712FE92
:10276C006620FFF7E7FDFB881B0A9BB2DBB203F088
:10277C001F03DBB21846FFF705FE0B4800F016F8F6
:10278C00BA883B881344BB80BB88EF2BCBD9FA8823
:10279C007B881344FB80FB88B3F5707FC0D300BFEC
:1027AC0000BF0837BD4680BD5463000880B584B0B7
:1027BC0000AF78601EE0BA20FFF7BCFDFFF70AFE01
:1027CC000346FB7306E0BA20FFF7B4FDFFF702FEE9
:1027DC000346FB73FB7B03F04003002BF3D1042077
:1027EC00FFF7A8FD7B681B781846FFF7CBFD7B68CD
:1027FC0001337B607B681B78002BDCD100BF00BFF2
:10280C001037BD4680BD80B582B000AF78603960AE
:10281C00D220FFF78FFD7B681B0CDBB21846FFF74D
:10282C00B1FDD320FFF786FD7B681B0ADBB218468F
:10283C00FFF7A8FDD420FFF77DFD7B68DBB21846BF
:10284C00FFF7A0FDD520FFF775FD3B681B0CDBB235
:10285C001846FFF797FDD620FFF76CFD3B681B0A67
:10286C00DBB21846FFF78EFDD720FFF763FD3B6800
:10287C00DBB21846FFF786FD00BF0837BD4680BDAA
:10288C0080B582B000AF0023FB71FB7943F00403E9
:10289C00FB71FB7923F00303FB710320FFF74AFD67
:1028AC00FB791846FFF76EFD00BF0837BD4680BDAB
:1028BC0080B500AF5620FFF73DFD0020FFF762FD0D
:1028CC005720FFF737FD0020FFF75CFD5820FFF77E
:1028DC0031FD0020FFF756FD5920FFF72BFD00209E
:1028EC00FFF750FD5A20FFF725FDEF20FFF74AFDBB
:1028FC005B20FFF71FFD0020FFF744FD5C20FFF776
:10290C0019FDBF20FFF73EFD5D20FFF713FD0320EF
:10291C00FFF738FD00BF80BD80B588B000AF554BC8
:10292C007B617B6903F5F42303F59073524AA2FB98
:10293C0003239B0C7B617B69FB837B699BB25B00F4
:10294C00BB837B699BB25B007B83FB8B412B01D9E7
:10295C004123FB83BB8B642B01D96423BB837B8B0F
:10296C00642B01D964237B8302237B8202233B8269
:10297C000223FB810523BB8105237B8105233B813E
:10298C00FB8BFB807B8BBB80BB8B7B800520FFF79D
:10299C00D1FC7B8A5BB29B015AB2BB895BB25B00F8
:1029AC005BB213435AB2FB881B0A9BB25BB203F0B7
:1029BC0001035BB213435BB2DBB21846FFF7E2FCD8
:1029CC000620FFF7B7FCFB88DBB21846FFF7DAFCF2
:1029DC000720FFF7AFFCFB895BB29B015AB23B8926
:1029EC005BB25B005BB213435AB27B881B0A9BB28F
:1029FC005BB203F001035BB213435BB2DBB218466C
:102A0C00FFF7C0FC0820FFF795FC7B88DBB218466B
:102A1C00FFF7B8FC0920FFF78DFC3B8A5BB29B01EA
:102A2C005AB27B895BB25B005BB213435AB2BB8870
:102A3C001B0A9BB25BB203F001035BB213435BB2A4
:102A4C00DBB21846FFF79EFC0A20FFF773FCBB882D
:102A5C00DBB21846FFF796FC0020FFF76BFC8020DA
:102A6C00FFF790FC0A2001F0B1F800BF2037BD46FB
:102A7C0080BD00BF60535A0183DE1B4380B582B01A
:102A8C0000AF0023FB71FB7943F00403FB711020B2
:102A9C00FFF750FCFB791846FFF774FC2A20FFF770
:102AAC0049FC0020FFF76EFC2B20FFF743FC0020B5
:102ABC00FFF768FC2C20FFF73DFC0020FFF762FCC1
:102ACC002D20FFF737FC0020FFF75CFC2E20FFF7D2
:102ADC0031FC6420FFF756FC2F20FFF72BFC002065
:102AEC00FFF750FC3020FFF725FC6420FFF74AFC71
:102AFC003120FFF71FFC0020FFF744FC3220FFF7CA
:102B0C0019FC0020FFF73EFC3320FFF713FC0020DC
:102B1C00FFF738FC3420FFF70DFC0020FFF732FCE8
:102B2C003520FFF707FC0020FFF72CFC0023BB71BE
:102B3C00BB7943F00403BB71BB7943F00103BB7158
:102B4C001120FFF7F7FBBB791846FFF71BFC00BF02
:102B5C000837BD4680BD80B582B000AF0023FB7145
:102B6C00E420FFF7E7FBFB7943F00403FB71FB79EF
:102B7C001846FFF707FCE020FFF7DCFB2920FFF7E6
:102B8C0001FCE120FFF7D6FB0320FFF7FBFB9C23A6
:102B9C00BB80BB88023BBB80E220FFF7CBFBBB8832
:102BAC00DBB21846FFF7EEFBE320FFF7C3FBBB8855
:102BBC001B0A9BB2DBB21846FFF7E4FBE420FFF7DD
:102BCC00B9FB0120FFF7DEFBE420FFF7B3FBFB7939
:102BDC0023F00403FB71FB791846FFF7D3FB0120AC
:102BEC0000F0F4FF00F004F800BF0837BD4680BDCC
:102BFC0080B582B000AFE420FFF79CFBFFF7EAFB47
:102C0C000346FB71FB7903F00103002BF3D00A2080
:102C1C0000F0DCFF00BF0837BD4680BD80B582B038
:102C2C0000AF0023FB71FB7943F00803FB71FB79C8
:102C3C0043F04003FB710120FFF77CFBFB79184646
:102C4C00FFF7A0FB0023FB710220FFF773FBFB795E
:102C5C001846FFF797FB0023FB710320FFF76AFB75
:102C6C00FB791846FFF78EFB0023FB711220FFF750
:102C7C0061FBFB791846FFF785FB0023FB71FB79A1
:102C8C0043F00203FB71FB7943F00103FB7113204A
:102C9C00FFF750FBFB791846FFF774FB00BF0837B2
:102CAC00BD4680BD80B584B000AF03460A46FB80AC
:102CBC001346BB80FB88DB089BB2013BFB810023E6
:102CCC00BB811420FFF736FBFB89DBB21846FFF7FC
:102CDC0059FB1520FFF72EFBBB89DBB203F00F036A
:102CEC00DBB21846FFF74EFBBB88B3F5806F02D9F9
:102CFC004FF48063BB80BB88002B01D10123BB80C8
:102D0C00BB88013B7B811A20FFF714FB7B89DBB26C
:102D1C001846FFF737FB1B20FFF70CFB7B891B0AC0
:102D2C009BB2DBB21846FFF72DFB00BF1037BD4638
:102D3C0080BD80B584B000AF0346FB80FB88DB0808
:102D4C009BB2013BFB810023BB811620FFF7F2FAFB
:102D5C00FB89DBB21846FFF715FB1720FFF7EAFAE1
:102D6C00BB89DBB203F00F03DBB21846FFF70AFB9B
:102D7C0000BF1037BD4680BD80B584B000AF0346A0
:102D8C00FB80FB88072B02D80023FB8104E0FB8827
:102D9C00DB089BB2013BFB811820FFF7CBFAFB89C8
:102DAC00DBB21846FFF7EEFA00BF1037BD4680BD08
:102DBC0080B584B000AF0346FB80FB88072B02D89C
:102DCC000023FB8104E0FB88DB089BB2013BFB8109
:102DDC001920FFF7AFFAFB89DBB21846FFF7D2FADE
:102DEC0000BF1037BD4680BD80B584B000AF034630
:102DFC00FB80FB88DBB2013BFB731C20FFF79AFACC
:102E0C00FB7B1846FFF7BEFA1D20FFF793FA002054
:102E1C00FFF7B8FA00BF1037BD4680BD80B584B04F
:102E2C0000AF0346FB80FB88DBB2013BFB731E202B
:102E3C00FFF780FAFB7B1846FFF7A4FA00BF1037A8
:102E4C00BD4680BD80B584B000AF0346FB80FB88D7
:102E5C00DBB2013BFB731F20FFF76CFAFB7B1846C0
:102E6C00FFF790FA00BF1037BD4680BD80B582B029
:102E7C0000AF0023FB71FB7943F04003FB71FB793E
:102E8C0043F00803FB711220FFF754FAFB79184644
:102E9C00FFF778FA00BF0837BD4680BD80B584B017
:102EAC0000AF0346FB71FB79642B01D96423FB71E2
:102EBC008420FFF73FFA1020FFF764FA8520FFF714
:102ECC0039FA8820FFF75EFAFA7913461B029B1A2F
:102EDC001B4A82FB03125211DB17D31AFB81FF230F
:102EEC00BB818C20FFF726FAFB89DBB21846FFF773
:102EFC0049FA8D20FFF71EFAFB891B0A9BB2DBB245
:102F0C001846FFF73FFA8E20FFF714FABB89DBB2A5
:102F1C001846FFF737FA8F20FFF70CFABB891B0A0C
:102F2C009BB2DBB21846FFF72DFA8620FFF702FAA8
:102F3C003020FFF727FA00BF1037BD4680BD00BF19
:102F4C001F85EB5180B582B000AF0023FB71FB797C
:102F5C0043F00103FB71FB7919460020FFF762FA7D
:102F6C0000BF0837BD4680BD80B500AF2020FFF7FD
:102F7C00E1F90020FFF706FA2120FFF7DBF900202A
:102F8C00FFF700FA2220FFF7D5F90020FFF7FAF936
:102F9C002320FFF7CFF90020FFF7F4F900BF80BD25
:102FAC0080B500AF2420FFF7C5F9F020FFF7EAF950
:102FBC002520FFF7BFF90020FFF7E4F900BF80BD23
:102FCC0080B582B000AF0023FB80FB88DBB223F01E
:102FDC0003037B71FB881B0A9BB2DBB203F01F035C
:102FEC003B712620FFF7A6F97B791846FFF7CAF943
:102FFC002720FFF79FF93B791846FFF7C3F900BF6D
:10300C000837BD4680BD80B500AF2820FFF792F988
:10301C000020FFF7B7F92920FFF78CF90020FFF704
:10302C00B1F900BF80BD80B582B000AF0023FB7149
:10303C00FB7943F00103FB715E20FFF77BF9FB7911
:10304C001846FFF79FF900BF0837BD4680BD80B515
:10305C0000AF5F20FFF76EF90020FFF793F96020B7
:10306C00FFF768F90020FFF78DF900BF80BD80B530
:10307C0082B000AF0023FB806120FFF75BF9FB8877
:10308C00DBB21846FFF77EF96220FFF753F9FB8895
:10309C001B0A9BB2DBB203F01F03DBB21846FFF72F
:1030AC0071F900BF0837BD4680BD80B582B000AF56
:1030BC0000237B605020FFF73DF97B68DBB218469C
:1030CC00FFF760F95120FFF735F97B681B0ADBB27B
:1030DC001846FFF757F95220FFF72CF97B681B0CA9
:1030EC00DBB21846FFF74EF95320FFF723F97B6844
:1030FC001B0EDBB21846FFF745F900BF0837BD467B
:10310C0080BD80B500AF5420FFF714F9F020FFF715
:10311C0039F95520FFF70EF90020FFF733F900BFFE
:10312C0080BD90B583B000AF0446084611461A46E0
:10313C002346FB800346BB800B467B8013463B80BB
:10314C006820FFF7F7F8FB88DBB21846FFF71AF98F
:10315C006920FFF7EFF8FB881B0A9BB2DBB203F088
:10316C001F03DBB21846FFF70DF96A20FFF7E2F8F0
:10317C00BB88DBB21846FFF705F96B20FFF7DAF8CE
:10318C00BB881B0A9BB2DBB203F01F03DBB21846F1
:10319C00FFF7F8F86C20FFF7CDF87B88DBB2184608
:1031AC00FFF7F0F86D20FFF7C5F87B881B0A9BB280
:1031BC00DBB203F01F03DBB21846FFF7E3F86E2017
:1031CC00FFF7B8F83B88DBB21846FFF7DBF86F2047
:1031DC00FFF7B0F83B881B0A9BB2DBB203F01F036E
:1031EC00DBB21846FFF7CEF8D220FFF7A3F83B8BE3
:1031FC00DBB21846FFF7C6F8D320FFF79BF8BB8B62
:10320C00DBB21846FFF7BEF8D420FFF793F83B8CDF
:10321C00DBB21846FFF7B6F86720FFF78BF8802073
:10322C00FFF7B0F800BF0C37BD4690BD80B584B039
:10323C0004AF00230293002301930023009340F278
:10324C00BF33EF2240F2BF310020FFF76AFF0023AB
:10325C000293002301930023009340F2BE33EF222C
:10326C0040F2BE310020FFF75CFF002302930023E5
:10327C0001930023009340F2BD33EF2240F2BD31A5
:10328C000020FFF74EFF002302930023019300233D
:10329C0000934FF46F73EF224FF46F710020FFF720
:1032AC0040FF00230293002301930023009340F27C
:1032BC00BB33EF2240F2BB310020FFF732FF00237B
:1032CC000293002301930023009340F2BA33EF22C0
:1032DC0040F2BA310020FFF724FF002302930023B1
:1032EC0001930023009340F2B933EF2240F2B9313D
:1032FC000020FFF716FF0023029300230193002305
:10330C0000934FF46E73EF224FF46E710020FFF7B1
:10331C0008FF00230293002301930023009340F243
:10332C00B733EF2240F2B7310020FFF7FAFE00BFAF
:10333C00BD4680BD80B400AF4FF080431B6903F0E5
:10334C000103002B0AD04FF080431B694FF08042E1
:10335C0023F001031361034B01221A7000BFBD4619
:10336C0080BC70473404002080B582B000AF0C4B99
:10337C005B690B4A43F001035361094B5B6903F032
:10338C0001037B607B68002203210D2000F019FDF6
:10339C000D2000F032FD00BF0837BD4680BD00BFD8
:1033AC000010024080B58AB000AF07F1180300226C
:1033BC001A605A609A60DA606E4B9B696D4A43F0F2
:1033CC00100393616B4B9B6903F010037B617B696A
:1033DC00684B9B69674A43F020039361654B9B697B
:1033EC0003F020033B613B69624B9B69614A43F0EC
:1033FC00040393615F4B9B6903F00403FB60FB6860
:10340C005C4B9B695B4A43F008039361594B9B6986
:10341C0003F00803BB60BB68564B9B69554A43F0ED
:10342C0001039361534B9B6903F001037B607B6841
:10343C0000224FF40051504800F0F5FF4FF40053B8
:10344C00BB610123FB6100233B6202237B6207F11A
:10345C0018031946484800F04BFE4FF48063BB61DB
:10346C0000233B620123FB6102237B6207F11803FB
:10347C001946424800F03CFE4FF40053BB61404BF0
:10348C00FB6100233B6207F1180319463B4800F02F
:10349C002FFE4FF44043BB610023FB6100233B62D2
:1034AC0007F118031946354800F022FE4FF48053FB
:1034BC00BB610023FB6100233B6207F11803194633
:1034CC002E4800F015FE0823BB610123FB6101238C
:1034DC003B6203237B6207F118031946274800F06F
:1034EC0007FE1023BB610123FB6100233B62032316
:1034FC007B6207F118031946204800F0F9FD2023E0
:10350C00BB610123FB6100233B6203237B6207F158
:10351C0018031946194800F0EBFD00220021282061
:10352C0000F04FFC282000F068FC164B4FF40052C2
:10353C005A610123BB610023FB6101233B6202231F
:10354C007B6207F1180319460C4800F0D1FD0223E9
:10355C00BB610023FB6101233B6202237B6207F109
:10356C0018031946054800F0C3FD00BF2837BD46B7
:10357C0080BD00BF0010024000100140000C014053
:10358C00000021100004014080B582B000AF00F0B3
:10359C00BBFA00F0E1F801F0FBFA0346464A13606F
:1035AC0001F054FB0346454A136001F059FB0346F6
:1035BC00434A136001F068FB0346424A1360424BD6
:1035CC005B6803F00C03414A13603F4B1B6803F428
:1035DC0000333F4A13603C4B1B6803F000733D4AB9
:1035EC00136000233B60FFF7DDFE012208213A48FF
:1035FC0000F019FF00221021374800F014FF0122BF
:10360C004FF48061344800F00EFFFFF7ADFE00F080
:10361C00FDF8FCF747FFFEF775FEFEF7A7FBFEF77C
:10362C0015FF1420FFF73AFCFFF756F8FFF7FEFDE5
:10363C002A4B4FF400525A6100F05EF8FDF79EF8E9
:10364C00274B1A68274B1B689A4203D0244B1B68E4
:10365C00244A1360234B1B68002BEDD000F0ACFA0E
:10366C007860214B1B687A68D31A0F2B14D91E4A29
:10367C007B6813601D4B1B78002B05D1FDF74CFBB1
:10368C001A4B01221A7007E0FEF716FA174B0022AC
:10369C001A70144B00221A60154B1B687A68D31AE7
:1036AC00C72BC9D9124A7B6813604FF400511148DB
:1036BC0000F0D1FEC0E700BF380400203C0400201D
:1036CC004004002044040020001002404804002064
:1036DC004C04002050040020000C01400004014068
:1036EC000001002064040020680400206C04002009
:1036FC00700400200010014080B582B000AF124B66
:10370C001B68002B1BD1114B1B6801330F4A136034
:10371C0000F052FA78600E4B1B687A68D31AB3F536
:10372C007A7F0CD3094B1B680A4A1360064B0122A3
:10373C001A60FDF7ADFA4FF4FA6000F047FA00BFDB
:10374C000837BD4680BD00BF600400205404002033
:10375C005C0400205804002080B590B000AF07F145
:10376C00180328220021184602F074F83B1D002291
:10377C001A605A609A60DA601A610123BB614FF4D7
:10378C008033FB6100233B620123BB6202237B631A
:10379C004FF48033BB634FF4E013FB6307F1180362
:1037AC00184600F089FE0346002B01D000F028F8E3
:1037BC000F237B600223BB600023FB604FF480630C
:1037CC003B6100237B613B1D0221184601F0F6F89A
:1037DC000346002B01D000F013F800BF4037BD4664
:1037EC0080BD80B582B000AF0346FB80FB88B3F58B
:1037FC00005F01D1FCF71CFF00BF0837BD4680BD40
:10380C0080B400AF72B600BFFEE7000080B500AF19
:10381C00174B184A1A60164B4FF482725A60144BAD
:10382C0000229A60124B0022DA60114B02221A61BC
:10383C000F4B01225A610E4B4FF400729A610C4BE4
:10384C001022DA610A4B00221A62094B00225A62DA
:10385C00074B00229A62064B0A22DA62044801F0F6
:10386C0045FA0346002B01D0FFF7CAFF00BF80BD0D
:10387C00740400200030014080B588B000AF78603F
:10388C0007F1100300221A605A609A60DA607B68B4
:10389C001B683E4A934275D13D4B9B693C4A43F4AD
:1038AC00805393613A4B9B6903F48053FB60FB6834
:1038BC00374B9B69364A43F004039361344B9B6945
:1038CC0003F00403BB60BB6820233B6102237B61D4
:1038DC000023BB610323FB6107F1100319462D483C
:1038EC0000F006FC40233B6100237B610123BB619C
:1038FC000323FB6107F110031946264800F0F8FB7F
:10390C0080233B6102237B610023BB610323FB61AA
:10391C0007F1100319461F4800F0EAFB10233B6126
:10392C0001237B610023BB610323FB6107F11003BF
:10393C001946184800F0DCFB174B184A1A60164B56
:10394C0010225A60144B00229A60134B8022DA60CA
:10395C00114B00221A61104B00225A610E4B0022AF
:10396C009A610D4B0022DA610B4800F061FA0346B4
:10397C00002B01D0FFF744FF7B68074A9A64064A84
:10398C007B68536200BF2037BD4680BD00300140CC
:10399C000010024000080140CC040020300002401E
:1039AC0080B485B000AF154B9B69144A43F00103FA
:1039BC009361124B9B6903F00103BB60BB680F4B17
:1039CC00DB690E4A43F08053D3610C4BDB6903F087
:1039DC0080537B607B680A4B5B68FB60FB6823F061
:1039EC00E063FB60FB6843F00073FB60044AFB6818
:1039FC00536000BF1437BD4680BC704700100240B6
:103A0C000000014080B400AFFEE780B400AFFEE7D9
:103A1C0080B400AFFEE780B400AFFEE780B400AF27
:103A2C00FEE780B400AF00BFBD4680BC704780B4D9
:103A3C0000AF00BFBD4680BC704780B400AF00BF74
:103A4C00BD4680BC704780B500AF00F0A3F800BF46
:103A5C0080BD000080B500AF024800F043FA00BF03
:103A6C0080BD00BFCC04002080B400AF00BFBD46B9
:103A7C0080BC704780B400AF00BFBD4680BC7047AF
:103A8C0080B500AF4FF4005000F0FEFC00BF80BDCD
:103A9C0080B586B000AF7860144A154BD31A7B61A1
:103AAC007B693B61134B1B68002B02D1114B124AF3
:103ABC001A60104B1A687B6813443A699A4207D211
:103ACC0001F0D0FE03460C221A604FF0FF3309E0E0
:103ADC00084B1B68FB60074B1A687B681344054A4C
:103AEC001360FB6818461837BD4680BD0050002097
:103AFC0000040000100500206006002080B400AF18
:103B0C0000BFBD4680BC704780B500AF084B1B683A
:103B1C00074A43F010031360032000F047F90F200D
:103B2C0000F008F8FFF73CFF0023184680BD00BFEB
:103B3C000020024080B582B000AF7860124B1A684A
:103B4C00124B1B7819464FF47A73B3FBF1F3B2FBAB
:103B5C00F3F3184600F05FF90346002B01D0012364
:103B6C000EE07B680F2B0AD8002279684FF0FF30EB
:103B7C0000F027F9064A7B681360002300E001235C
:103B8C0018460837BD4680BD700000207800002024
:103B9C007400002080B400AF054B1B781A46054B0F
:103BAC001B681344034A136000BFBD4680BC7047BA
:103BBC00780000201405002080B400AF024B1B6875
:103BCC001846BD4680BC70471405002080B584B0F3
:103BDC0000AF7860FFF7F0FFB8607B68FB60FB68B4
:103BEC00B3F1FF3F05D00A4B1B781A46FB68134410
:103BFC00FB6000BFFFF7E0FF0246BB68D31AFA6810
:103C0C009A42F7D800BF00BF1037BD4680BD00BF39
:103C1C007800002080B485B000AF78607B6803F03A
:103C2C000703FB600C4BDB68BB60BA684FF6FF0305
:103C3C001340BB60FB681A02BB68134343F0BF63BD
:103C4C0043F40033BB60044ABB68D36000BF143735
:103C5C00BD4680BC704700BF00ED00E080B400AFF3
:103C6C00044BDB681B0A03F007031846BD4680BCF7
:103C7C00704700BF00ED00E080B483B000AF034696
:103C8C00FB7197F90730002B0BDBFB7903F01F025C
:103C9C00064997F907305B09012000FA02F241F856
:103CAC00232000BF0C37BD4680BC704700E100E00C
:103CBC0080B483B000AF03463960FB7197F90730CD
:103CCC00002B0ADB3B68DAB20C4997F9073012017A
:103CDC00D2B20B4483F800230AE03B68DAB20849FD
:103CEC00FB7903F00F03043B1201D2B20B441A769A
:103CFC0000BF0C37BD4680BC704700BF00E100E040
:103D0C0000ED00E080B489B000AFF860B9607A6073
:103D1C00FB6803F00703FB61FB69C3F10703042B8A
:103D2C0028BF0423BB61FB690433062B02D9FB6952
:103D3C00033B00E000237B614FF0FF32BB6902FACA
:103D4C0003F3DA43BB681A407B699A404FF0FF31AA
:103D5C007B6901FA03F3D9437B680B401343184684
:103D6C002437BD4680BC704780B582B000AF786008
:103D7C007B68013BB3F1807F01D301230FE00A4A3A
:103D8C007B68013B53600F214FF0FF30FFF790FF32
:103D9C00054B00229A60044B07221A600023184638
:103DAC000837BD4680BD00BF10E000E080B582B092
:103DBC0000AF78607868FFF72DFF00BF0837BD466D
:103DCC0080BD80B586B000AF0346B9607A60FB73E6
:103DDC0000237B61FFF742FF78617A68B9687869E4
:103DEC00FFF790FF024697F90F3011461846FFF780
:103DFC005FFF00BF1837BD4680BD80B582B000AFF5
:103E0C000346FB7197F907301846FFF735FF00BFE3
:103E1C000837BD4680BD80B582B000AF7860786849
:103E2C00FFF7A2FF034618460837BD4680BD0000C9
:103E3C0080B485B000AF78600023FB607B68002BFA
:103E4C0001D1012343E07B681B681A46224B1344C3
:103E5C00224AA2FB03231B099A007B681A647B6825
:103E6C001F4ADA637B68022283F821207B681B6877
:103E7C001B68FB60FB6823F47F5323F03003FB606B
:103E8C007B685A687B689B681A437B68DB681A43BB
:103E9C007B681B691A437B685B691A437B689B6967
:103EAC001A437B68DB691343FA681343FB607B6836
:103EBC001B68FA681A607B6800229A637B6801228F
:103ECC0083F821207B68002283F8202000231846E9
:103EDC001437BD4680BC7047F8FFFDBFCDCCCCCCB1
:103EEC000000024080B584B000AF78607B68DB6B6B
:103EFC001B68FB607B681B681B68BB607B681B6C6A
:103F0C0004229A40FB681340002B4FD0BB6803F08F
:103F1C000403002B4AD07B681B681B6803F020034A
:103F2C00002B07D17B681B681A687B681B6822F022
:103F3C0004021A607B681B68664A934229D07B682E
:103F4C001B68654A934222D07B681B68634A934284
:103F5C001AD07B681B68624A934212D07B681B683C
:103F6C00604A93420AD07B681B685F4A934202D135
:103F7C004FF480030EE04FF080630BE04FF480238E
:103F8C0008E04FF4804305E04FF4806302E04023E7
:103F9C0000E00423554A53607B68DB6A002B00F079
:103FAC0094807B68DB6A786898478EE07B681B6C32
:103FBC0002229A40FB681340002B56D0BB6803F0DA
:103FCC000203002B51D07B681B681B6803F0200395
:103FDC00002B0BD17B681B681A687B681B6822F06E
:103FEC000A021A607B68012283F821207B681B6817
:103FFC00384A934229D07B681B68374A934222D0B7
:10400C007B681B68354A93421AD07B681B68344A1C
:10401C00934212D07B681B68324A93420AD07B6869
:10402C001B68314A934202D14FF400130EE04FF05B
:10403C0000730BE04FF4003308E04FF4005305E03D
:10404C004FF4007302E0202300E00223274A536060
:10405C007B68002283F820207B689B6A002B34D07D
:10406C007B689B6A786898472FE07B681B6C0822FA
:10407C009A40FB681340002B28D0BB6803F0080360
:10408C00002B23D07B681B681A687B681B6822F0A6
:10409C000E021A607B681A6C7B68DB6B012101FADB
:1040AC0002F25A607B6801229A637B68012283F8D2
:1040BC0021207B68002283F820207B681B6B002B5F
:1040CC0004D07B681B6B7868984700BF00BF103723
:1040DC00BD4680BD080002401C000240300002407A
:1040EC0044000240580002406C00024000000240B4
:1040FC0080B48BB000AF7860396000237B62002302
:10410C003B6269E101227B6A02FA03F3FB613B68C3
:10411C001B68FA691340BB61BA69FB699A4240F0AB
:10412C0058813B685B689A4A93425ED0984A9342A6
:10413C0075D8984A934258D0964A93426FD8964A6B
:10414C00934252D0944A934269D8944A93424CD0A9
:10415C00924A934263D8924A934246D0904A9342F1
:10416C005DD8122B2AD8122B59D801A252F823F061
:10417C00F7410008D1410008E3410008254200083E
:10418C002B4200082B4200082B4200082B4200084F
:10419C002B4200082B4200082B4200082B4200083F
:1041AC002B4200082B4200082B4200082B4200082F
:1041BC002B420008D9410008ED410008794A93428E
:1041CC0013D02CE03B68DB683B6229E03B68DB6882
:1041DC0004333B6224E03B68DB6808333B621FE03E
:1041EC003B68DB680C333B621AE03B689B68002B36
:1041FC0002D104233B6213E03B689B68012B05D181
:10420C0008233B627B68FA691A6109E008233B6268
:10421C007B68FA695A6103E000233B6200E000BF4F
:10422C00BB69FF2B01D87B6801E07B6804337B61A1
:10423C00BB69FF2B02D87B6A9B0002E07B6A083BC0
:10424C009B003B617B691A680F213B6901FA03F300
:10425C00DB431A40396A3B6901FA03F31A437B6961
:10426C001A603B685B6803F08053002B00F0B18050
:10427C004D4B9B694C4A43F0010393614A4B9B693C
:10428C0003F00103BB60BB68484A7B6A9B0802339E
:10429C0052F82330FB607B6A03F003039B000F2270
:1042AC0002FA03F3DB43FA681340FB607B68404A75
:1042BC00934213D07B683F4A93420DD07B683E4AB1
:1042CC00934207D07B683D4A934201D1032306E019
:1042DC00042304E0022302E0012300E000237A6AB5
:1042EC0002F0030292009340FA681343FB602F49DB
:1042FC007B6A9B080233FA6841F823203B685B68B1
:10430C0003F48033002B06D02D4B1A682C49BB6963
:10431C0013430B6006E02A4B1A68BB69DB43284940
:10432C0013400B603B685B6803F40033002B06D032
:10433C00234B5A682249BB6913434B6006E0204B60
:10434C005A68BB69DB431E4913404B603B685B6892
:10435C0003F48013002B06D0194B9A681849BB69DB
:10436C0013438B6006E0164B9A68BB69DB43144918
:10437C0013408B603B685B6803F40013002B21D067
:10438C000F4BDA680E49BB691343CB6021E000BFC9
:10439C00000032100000311000002210000021102B
:1043AC00000012100000111000100240000001402B
:1043BC0000080140000C01400010014000140140B5
:1043CC00000401400B4BDA68BB69DB43094913401D
:1043DC00CB607B6A01337B623B681A687B6A22FA8A
:1043EC0003F3002B7FF48EAE00BF00BF2C37BD460D
:1043FC0080BC70470004014080B485B000AF786089
:10440C000B467B807B689A687B881340002B02D01C
:10441C000123FB7301E00023FB73FB7B184614376D
:10442C00BD4680BC704780B483B000AF78600B464B
:10443C007B8013467B707B78002B03D07A887B685B
:10444C001A6103E07B881A047B681A6100BF0C3781
:10445C00BD4680BC704780B485B000AF78600B4619
:10446C007B807B68DB68FB607A88FB6813401A04EE
:10447C00FB68D9437B880B401A437B681A6100BFE9
:10448C001437BD4680BC704780B582B000AF034680
:10449C00FB80084B5A69FB881340002B06D0054A59
:1044AC00FB885361FB881846FFF79BF900BF083760
:1044BC00BD4680BD0004014080B586B000AF786079
:1044CC007B68002B01D1012372E27B681B6803F02F
:1044DC000103002B00F08780924B5B6803F00C0308
:1044EC00042B0CD08F4B5B6803F00C03082B12D100
:1044FC008C4B5B6803F48033B3F5803F0BD1894B55
:10450C001B6803F40033002B6CD07B685B68002BBA
:10451C0068D101234CE27B685B68B3F5803F06D120
:10452C00804B1B687F4A43F4803313602EE07B681A
:10453C005B68002B0CD17B4B1B687A4A23F48033CD
:10454C001360784B1B68774A23F4802313601DE0BB
:10455C007B685B68B3F5A02F0CD1724B1B68714A5A
:10456C0043F4802313606F4B1B686E4A43F4803313
:10457C0013600BE06B4B1B686A4A23F480331360A7
:10458C00684B1B68674A23F4802313607B685B6865
:10459C00002B13D0FFF710FB386108E0FFF70CFB82
:1045AC0002463B69D31A642B01D9032300E25D4B0D
:1045BC001B6803F40033002BF0D014E0FFF7FCFA77
:1045CC00386108E0FFF7F8FA02463B69D31A642B0E
:1045DC0001D90323ECE1534B1B6803F40033002B8C
:1045EC00F0D100E000BF7B681B6803F00203002BD6
:1045FC0063D04C4B5B6803F00C03002B0BD0494B86
:10460C005B6803F00C03082B1CD1464B5B6803F46E
:10461C008033002B16D1434B1B6803F00203002B95
:10462C0005D07B681B69012B01D00123C0E13D4BF8
:10463C001B6823F0F8027B685B69DB003949134384
:10464C000B603AE07B681B69002B20D0364B0122B3
:10465C001A60FFF7B1FA386108E0FFF7ADFA0246CD
:10466C003B69D31A022B01D90323A1E12D4B1B6803
:10467C0003F00203002BF0D02A4B1B6823F0F80246
:10468C007B685B69DB00274913430B6015E0264B05
:10469C0000221A60FFF790FA386108E0FFF78CFAF5
:1046AC0002463B69D31A022B01D9032380E11D4B2F
:1046BC001B6803F00203002BF0D17B681B6803F02E
:1046CC000803002B3AD07B689B69002B19D0174B41
:1046DC0001221A60FFF770FA386108E0FFF76CFAF4
:1046EC0002463B69D31A022B01D9032360E10D4B1F
:1046FC005B6A03F00203002BF0D0012000F0D8FA23
:10470C001CE00A4B00221A60FFF756FA38610FE0E2
:10471C00FFF752FA02463B69D31A022B08D903233E
:10472C0046E100BF001002400000424280044242B9
:10473C00924B5B6A03F00203002BE9D17B681B6888
:10474C0003F00403002B00F0A6800023FB758B4BB9
:10475C00DB6903F08053002B0DD1884BDB69874A52
:10476C0043F08053D361854BDB6903F08053BB600E
:10477C00BB680123FB75824B1B6803F48073002B11
:10478C0018D17F4B1B687E4A43F480731360FFF78C
:10479C0013FA386108E0FFF70FFA02463B69D31AA7
:1047AC00642B01D9032303E1754B1B6803F480735D
:1047BC00002BF0D07B68DB68012B06D16F4B1B6A9A
:1047CC006E4A43F0010313622DE07B68DB68002B1B
:1047DC000CD16A4B1B6A694A23F001031362674BC5
:1047EC001B6A664A23F0040313621CE07B68DB68D7
:1047FC00052B0CD1614B1B6A604A43F00403136216
:10480C005E4B1B6A5D4A43F0010313620BE05B4B8A
:10481C001B6A5A4A23F001031362584B1B6A574A0E
:10482C0023F0040313627B68DB68002B15D0FFF7C1
:10483C00C3F938610AE0FFF7BFF902463B69D31AA6
:10484C0041F28832934201D90323B1E04B4B1B6AEE
:10485C0003F00203002BEED014E0FFF7ADF9386142
:10486C000AE0FFF7A9F902463B69D31A41F28832F4
:10487C00934201D903239BE0404B1B6A03F00203D4
:10488C00002BEED1FB7D012B05D13C4BDB693B4A68
:10489C0023F08053D3617B68DB69002B00F08780A9
:1048AC00364B5B6803F00C03082B61D07B68DB692B
:1048BC00022B46D1334B00221A60FFF77DF9386189
:1048CC0008E0FFF779F902463B69D31A022B01D9AC
:1048DC0003236DE0294B1B6803F00073002BF0D110
:1048EC007B681B6AB3F5803F08D1244B5B6823F4CB
:1048FC0000327B689B68214913434B601F4B5B68FC
:10490C0023F474127B68196A7B685B6A0B431B493E
:10491C0013434B601B4B01221A60FFF74DF93861B2
:10492C0008E0FFF749F902463B69D31A022B01D97B
:10493C0003233DE0114B1B6803F00073002BF0D0F8
:10494C0035E0104B00221A60FFF736F9386108E0A9
:10495C00FFF732F902463B69D31A022B01D9032324
:10496C0026E0064B1B6803F00073002BF0D11EE011
:10497C007B68DB69012B07D1012319E00010024091
:10498C0000700040600042420B4B5B68FB60FB68B0
:10499C0003F480327B681B6A9A4206D1FB6803F4ED
:1049AC0070127B685B6A9A4201D0012300E00023FD
:1049BC0018461837BD4680BD0010024080B584B043
:1049CC0000AF786039607B68002B01D10123D0E007
:1049DC006A4B1B6803F007033A689A4210D9674B7D
:1049EC001B6823F0070265493B6813430B60634B5C
:1049FC001B6803F007033A689A4201D00123B8E020
:104A0C007B681B6803F00203002B20D07B681B68BB
:104A1C0003F00403002B05D0594B5B68584A43F450
:104A2C00E06353607B681B6803F00803002B05D020
:104A3C00534B5B68524A43F460535360504B5B6872
:104A4C0023F0F0027B689B684D4913434B607B68F5
:104A5C001B6803F00103002B40D07B685B68012BC3
:104A6C0007D1474B1B6803F40033002B15D10123EE
:104A7C007FE07B685B68022B07D1414B1B6803F01E
:104A8C000073002B09D1012373E03D4B1B6803F02D
:104A9C000203002B01D101236BE0394B5B6823F03F
:104AAC0003027B685B68364913434B60FFF784F85D
:104ABC00F8600AE0FFF780F80246FB68D31A41F26F
:104ACC008832934201D9032353E02D4B5B6803F0EA
:104ADC000C027B685B689B009A42EBD1274B1B68EE
:104AEC0003F007033A689A4210D2244B1B6823F058
:104AFC00070222493B6813430B60204B1B6803F0F1
:104B0C0007033A689A4201D0012332E07B681B68A4
:104B1C0003F00403002B08D0194B5B6823F4E0620C
:104B2C007B68DB68164913434B607B681B6803F09A
:104B3C000803002B09D0124B5B6823F460527B688E
:104B4C001B69DB000E4913434B6000F021F8024651
:104B5C000B4B5B681B0903F00F030A49CB5C22FA71
:104B6C0003F3094A1360094B1B681846FEF7E2FF72
:104B7C00002318461037BD4680BD00BF0020024000
:104B8C0000100240F4630008700000207400002044
:104B9C0090B48AB000AF294B3C1D0FCB84E80F00BA
:104BAC0040F201233B800023FB610023BB61002307
:104BBC007B6200237B6100233B62214B5B68FB61C2
:104BCC00FB6903F00C03042B02D0082B03D02BE061
:104BDC001C4B3B622BE0FB699B0C03F00F0328334F
:104BEC003B4413F8243C7B61FB6903F48033002BBA
:104BFC0012D0134B5B685B0C03F0010328333B446E
:104C0C0013F8283CBB617B690E4A03FB02F2BB69BB
:104C1C00B2FBF3F37B6204E07B690B4A02FB03F308
:104C2C007B627B6A3B6202E0064B3B6200BF3B6AE5
:104C3C0018462837BD4690BC704700BF5863000823
:104C4C000010024000127A0000093D0080B400AF51
:104C5C00024B1B681846BD4680BC70477000002094
:104C6C0080B500AFFFF7F2FF0246054B5B681B0AED
:104C7C0003F007030349CB5C22FA03F3184680BD0B
:104C8C00001002400464000880B500AFFFF7DEFF9F
:104C9C000246054B5B68DB0A03F007030349CB5C58
:104CAC0022FA03F3184680BD001002400464000889
:104CBC0080B485B000AF78600A4B1B680A4AA2FB2F
:104CCC0003235B0A7A6802FB03F3FB6000BFFB68FB
:104CDC005A1EFA60002BF9D100BF00BF1437BD4635
:104CEC0080BC704770000020D34D621080B582B03C
:104CFC0000AF78607B68002B01D1012376E07B68E4
:104D0C005B6A002B08D17B685B68B3F5827F09D0A6
:104D1C007B680022DA6105E07B6800221A617B68FF
:104D2C0000225A617B6800229A627B6893F85130AA
:104D3C00DBB2002B06D17B68002283F85020786808
:104D4C00FEF79AFD7B68022283F851207B681B6872
:104D5C001A687B681B6822F040021A607B685B68EB
:104D6C0003F482727B689B6803F404431A437B68E8
:104D7C00DB6803F400631A437B681B6903F00203CE
:104D8C001A437B685B6903F001031A437B689B69D8
:104D9C0003F400731A437B68DB6903F038031A438E
:104DAC007B681B6A03F0800342EA03017B689B6A01
:104DBC0003F400527B681B680A431A607B689B698A
:104DCC001A0C7B681B6802F004025A607B681B6833
:104DDC00DA697B681B6822F40062DA617B68002266
:104DEC005A657B68012283F8512000231846083746
:104DFC00BD4680BD80B588B000AFF860B9603B603F
:104E0C001346FB800023FB77FB6893F85030012B93
:104E1C0001D1022326E1FB68012283F85020FEF722
:104E2C00CBFEB861FB88FB82FB6893F85130DBB298
:104E3C00012B02D00223FB770BE1BB68002B02D0C5
:104E4C00FB88002B02D10123FB7702E1FB680322D4
:104E5C0083F85120FB6800225A65FB68BA681A6314
:104E6C00FB68FA889A86FB68FA88DA86FB68002267
:104E7C009A63FB6800229A87FB680022DA87FB683A
:104E8C0000225A64FB6800221A64FB689B68B3F525
:104E9C00004F0FD1FB681B681A68FB681B6822F077
:104EAC0040021A60FB681B681A68FB681B6842F4B6
:104EBC0080421A60FB681B681B6803F04003402BA0
:104ECC0007D0FB681B681A68FB681B6842F040023D
:104EDC001A60FB68DB68B3F5006F4BD1FB685B684D
:104EEC00002B02D0FB8A012B3ED1FB681B6B1A886E
:104EFC00FB681B68DA60FB681B6B9A1CFB681A6307
:104F0C00FB68DB8E9BB2013B9AB2FB68DA862BE026
:104F1C00FB681B689B6803F00203022B12D1FB6831
:104F2C001B6B1A88FB681B68DA60FB681B6B9A1C8E
:104F3C00FB681A63FB68DB8E9BB2013B9AB2FB6881
:104F4C00DA8611E0FEF738FE0246BB69D31A3A68DE
:104F5C009A4203D83B68B3F1FF3F02D13B68002B68
:104F6C0002D10323FB7774E0FB68DB8E9BB2002B32
:104F7C00CED14CE0FB685B68002B02D0FB8A012B86
:104F8C0040D1FB681A6BFB681B680C3312781A70E3
:104F9C00FB681B6B5A1CFB681A63FB68DB8E9BB2AD
:104FAC00013B9AB2FB68DA862CE0FB681B689B68B5
:104FBC0003F00203022B13D1FB681A6BFB681B680E
:104FCC000C3312781A70FB681B6B5A1CFB681A6343
:104FDC00FB68DB8E9BB2013B9AB2FB68DA8611E070
:104FEC00FEF7EAFD0246BB69D31A3A689A4203D827
:104FFC003B68B3F1FF3F02D13B68002B02D1032386
:10500C00FB7726E0FB68DB8E9BB2002BCDD1BA6917
:10501C003968F86800F0B8FB0346002B02D0FB6837
:10502C0020225A65FB689B68002B0AD100233B6148
:10503C00FB681B68DB683B61FB681B689B683B611A
:10504C003B69FB685B6D002B02D00123FB7700E012
:10505C0000BFFB68012283F85120FB68002283F813
:10506C005020FB7F18462037BD4680BD80B588B0E8
:10507C0002AFF860B9603B601346FB800023FB7500
:10508C00FB685B68B3F5827F12D1FB689B68002BD1
:10509C000ED1FB68042283F85120FA883B680093F8
:1050AC001346BA68B968F86800F0F1F80346EAE00C
:1050BC00FB6893F85030012B01D10223E3E0FB682D
:1050CC00012283F85020FEF777FD3861FB6893F8D6
:1050DC005130DBB2012B02D00223FB75CAE0BB6856
:1050EC00002B02D0FB88002B02D10123FB75C1E001
:1050FC00FB68042283F85120FB6800225A65FB6888
:10510C00BA689A63FB68FA889A87FB68FA88DA8728
:10511C00FB6800221A63FB6800229A86FB68002257
:10512C00DA86FB6800221A64FB6800225A64FB686A
:10513C009B68B3F5004F0FD1FB681B681A68FB68BE
:10514C001B6822F040021A60FB681B681A68FB6837
:10515C001B6822F480421A60FB681B681B6803F012
:10516C004003402B07D0FB681B681A68FB681B6860
:10517C0042F040021A60FB68DB68002B62D12EE023
:10518C00FB681B689B6803F00103012B15D1FB68BE
:10519C001B6803F10C02FB689B6B1278D2B21A707D
:1051AC00FB689B6B5A1CFB689A63FB68DB8F9BB29A
:1051BC00013B9AB2FB68DA8711E0FEF7FDFC024670
:1051CC003B69D31A3A689A4203D83B68B3F1FF3F64
:1051DC0002D13B68002B02D10323FB754AE0FB682C
:1051EC00DB8F9BB2002BCBD131E0FB681B689B683B
:1051FC0003F00103012B13D1FB681B68DA68FB6811
:10520C009B6B92B21A80FB689B6B9A1CFB689A632F
:10521C00FB68DB8F9BB2013B9AB2FB68DA8711E02B
:10522C00FEF7CAFC02463B69D31A3A689A4203D885
:10523C003B68B3F1FF3F02D13B68002B02D1032343
:10524C00FB7517E0FB68DB8F9BB2002BCDD13A6965
:10525C003968F86800F046FA0346002B02D0FB6868
:10526C0020225A65FB685B6D002B02D00123FB7575
:10527C0000E000BFFB68012283F85120FB6800228C
:10528C0083F85020FB7D18461837BD4680BD80B58D
:10529C008CB000AFF860B9607A607B800123FB6250
:1052AC00002387F82B30FB6893F85030012B01D189
:1052BC0002238AE1FB68012283F85020FEF77CFC74
:1052CC007862FB6893F8513087F82330FB685B6891
:1052DC00FB617B887B8397F82330012B0FD0FB6914
:1052EC00B3F5827F07D1FB689B68002B03D197F83D
:1052FC002330042B03D0022387F82B305BE1BB68EF
:10530C00002B05D07B68002B02D07B88002B03D1AF
:10531C00012387F82B304EE1FB6893F85130DBB258
:10532C00042B03D0FB68052283F85120FB68002274
:10533C005A65FB687A689A63FB687A88DA87FB6837
:10534C007A889A87FB68BA681A63FB687A88DA8667
:10535C00FB687A889A86FB6800221A64FB68002234
:10536C005A64FB681B681B6803F04003402B07D092
:10537C00FB681B681A68FB681B6842F040021A60E5
:10538C00FB68DB68B3F5006F78D1FB685B68002BBA
:10539C0002D07B8B012B66D1FB681B6B1A88FB68D8
:1053AC001B68DA60FB681B6B9A1CFB681A63FB6852
:1053BC00DB8E9BB2013B9AB2FB68DA8653E0FB684A
:1053CC001B689B6803F00203022B1BD1FB68DB8E6E
:1053DC009BB2002B16D0FB6A012B13D1FB681B6B05
:1053EC001A88FB681B68DA60FB681B6B9A1CFB68ED
:1053FC001A63FB68DB8E9BB2013B9AB2FB68DA86C0
:10540C000023FB62FB681B689B6803F00103012B04
:10541C0019D1FB68DB8F9BB2002B14D0FB681B6887
:10542C00DA68FB689B6B92B21A80FB689B6B9A1CC8
:10543C00FB689A63FB68DB8F9BB2013B9AB2FB68FB
:10544C00DA870123FB62FEF7B7FB02467B6AD31AAD
:10545C00BA6B9A4207D8BB6BB3F1FF3F03D003235F
:10546C0087F82B30A7E0FB68DB8E9BB2002BA6D114
:10547C00FB68DB8F9BB2002BA1D17CE0FB685B68E7
:10548C00002B02D07B8B012B6BD1FB681A6BFB685A
:10549C001B680C3312781A70FB681B6B5A1CFB6868
:1054AC001A63FB68DB8E9BB2013B9AB2FB68DA860F
:1054BC0057E0FB681B689B6803F00203022B1CD1AE
:1054CC00FB68DB8E9BB2002B17D0FB6A012B14D12F
:1054DC00FB681A6BFB681B680C3312781A70FB683C
:1054EC001B6B5A1CFB681A63FB68DB8E9BB2013B7F
:1054FC009AB2FB68DA860023FB62FB681B689B6828
:10550C0003F00103012B19D1FB68DB8F9BB2002B3D
:10551C0014D0FB681B68DA68FB689B6BD2B21A70FC
:10552C00FB689B6B5A1CFB689A63FB68DB8F9BB216
:10553C00013B9AB2FB68DA870123FB62FEF73CFB66
:10554C0002467B6AD31ABA6B9A4203D8BB6BB3F18F
:10555C00FF3F02D1BB6B002B03D1032387F82B3009
:10556C0029E0FB68DB8E9BB2002BA2D1FB68DB8FA2
:10557C009BB2002B9DD17A6AB96BF86800F004F9E4
:10558C000346002B06D0012387F82B30FB68202222
:10559C005A6510E0FB689B68002B0BD100237B61E4
:1055AC00FB681B68DB687B61FB681B689B687B6125
:1055BC007B6900E000BFFB68012283F85120FB6887
:1055CC00002283F8502097F82B3018463037BD4610
:1055DC0080BD000080B588B000AFF860B9603B605A
:1055EC001346FB71FEF7E8FA0246BB6A9B1A3A684F
:1055FC001344FB61FEF7E0FAB861394B1B685B01A1
:10560C001B0DFA6902FB03F37B6154E03B68B3F1B9
:10561C00FF3F50D0FEF7D0FA0246BB69D31AFA69A5
:10562C009A4202D9FB69002B3DD1FB681B685A6872
:10563C00FB681B6822F0E0025A60FB685B68B3F5FC
:10564C00827F11D1FB689B68B3F5004F04D0FB68D7
:10565C009B68B3F5806F07D1FB681B681A68FB6801
:10566C001B6822F040021A60FB689B6AB3F5005F6E
:10567C000FD1FB681B681A68FB681B6822F4005288
:10568C001A60FB681B681A68FB681B6842F40052BE
:10569C001A60FB68012283F85120FB68002283F812
:1056AC005020032317E07B69002B01D10023FB6101
:1056BC007B69013B7B61FB681B689A68BB68134084
:1056CC00BA689A420CBF01230023DBB21A46FB795D
:1056DC009A429BD1002318462037BD4680BD00BF9F
:1056EC007000002080B586B002AFF860B9607A60B7
:1056FC00FB685B68B3F5827F11D1FB689B68B3F5DF
:10570C00004F04D0FB689B68B3F5806F07D1FB6832
:10571C001B681A68FB681B6822F040021A60FB6861
:10572C005B68B3F5827F17D1FB689B68B3F5806F1C
:10573C0012D17B680093BB6800220121F868FFF747
:10574C0049FF0346002B1AD0FB685B6D43F0200227
:10575C00FB685A65032313E07B680093BB68002247
:10576C008021F868FFF736FF0346002B07D0FB6853
:10577C005B6D43F02002FB685A65032300E00023B5
:10578C0018461037BD4680BD80B586B002AFF860B4
:10579C00B9607A607B680093BB6800228021F8684E
:1057AC00FFF718FF0346002B07D0FB685B6D43F037
:1057BC002002FB685A65032300E0002318461037CB
:1057CC00BD4680BD0C480D490D4A002302E0D4585B
:1057DC00C4500433C4188C42F9D30A4A0A4C00232F
:1057EC0001E013600432A242FBD3FEF787F900F00C
:1057FC003FF8FDF7C9FE704700000020CC000020E8
:10580C0050640008CC00002060060020FEE7000079
:10581C000EB46FF0004110B500249DB01FAB029088
:10582C000690079104910948094953F8042B0591F6
:10583C00006802A901931B9400F0A8F9029B1C704C
:10584C001DB0BDE8104003B0704700BF7C000020C5
:10585C000802FFFF03460244934200D1704703F84D
:10586C00011BF9E7014B1868704700BF7C00002052
:10587C0070B500260C4D0D4C641BA410A64209D12A
:10588C0000F07EFC00260A4D0A4C641BA410A642B4
:10589C0005D170BD55F8043B98470136EEE755F835
:1058AC00043B98470136F2E7486400084864000856
:1058BC00486400084C64000870477047034611F8B0
:1058CC00012B03F8012B002AF9D170470A449142AD
:1058DC0000F1FF3300D1704710B511F8014B914224
:1058EC0003F8014FF9D110BD38B50546002940D059
:1058FC0051F8043C0C1F002BB8BFE41800F0DEF884
:10590C001C4A136833B9636014602846BDE83840FC
:10591C0000F0DAB8A34208D9206821188B4201BFE5
:10592C0019685B6809182160EDE71A465B680BB1D2
:10593C00A342FAD911685018A0420BD12068014437
:10594C00501883421160E0D118685B6808441060FD
:10595C005360DAE702D90C232B60D6E720682118B4
:10596C008B4201BF19685B68091821606360546041
:10597C00CBE738BD5C06002070B50F4E0C46316885
:10598C00054611B900F0A8FB30602146284600F00E
:10599C00A3FB431C03D14FF0FF34204670BDC41C45
:1059AC0024F00304A042F8D0211A284600F094FBFE
:1059BC000130F2D1EFE700BF580600202DE9F84383
:1059CC00CD1C25F0030508350C2D38BF0C25002DFA
:1059DC00064601DBA94204D90C2333600020BDE844
:1059EC00F883DFF8D48000F069F8D8F800301C4652
:1059FC0044BB29463046FFF7BFFF431C044658D131
:105A0C00D8F800402746002F43D1002C4BD02368F8
:105A1C003946304604EB030900F05EFB814542D168
:105A2C00216830466D1A2946FFF7A6FF01303AD09F
:105A3C0023682B442360D8F800305A6862BBC8F83E
:105A4C0000700FE02268521B20D40B2A17D9611961
:105A5C00A342256018BF5960636808BFC8F80010DE
:105A6C0062514B60304600F02FF804F10B00231DFF
:105A7C0020F00700C21A1CBF1B1AA350AFE76268C4
:105A8C00A3420CBFC8F800205A60EBE723466468B9
:105A9C00AEE73C467F68B6E71A465B68A342FBD18B
:105AAC0000235360DEE70C233046336000F00CF823
:105ABC0094E70560D6E700BF5C0600200148FFF7BD
:105ACC00FBBE00BF540600200148FFF7F6BE00BF26
